{
  "_format": "hh-sol-artifact-1",
  "contractName": "Pollos",
  "sourceName": "contracts/Pollo.sol",
  "abi": [
    {
      "anonymous": false,
      "inputs": [
        {
          "indexed": true,
          "internalType": "address",
          "name": "previousOwner",
          "type": "address"
        },
        {
          "indexed": true,
          "internalType": "address",
          "name": "newOwner",
          "type": "address"
        }
      ],
      "name": "OwnershipTransferred",
      "type": "event"
    },
    {
      "inputs": [
        {
          "internalType": "string",
          "name": "color",
          "type": "string"
        },
        {
          "internalType": "string",
          "name": "size",
          "type": "string"
        },
        {
          "internalType": "string",
          "name": "sexo",
          "type": "string"
        },
        {
          "internalType": "uint256",
          "name": "precio",
          "type": "uint256"
        },
        {
          "internalType": "uint256",
          "name": "cantidadExistencia",
          "type": "uint256"
        }
      ],
      "name": "addPollo",
      "outputs": [
        {
          "internalType": "uint256",
          "name": "",
          "type": "uint256"
        }
      ],
      "stateMutability": "nonpayable",
      "type": "function"
    },
    {
      "inputs": [
        {
          "internalType": "uint256",
          "name": "polloId",
          "type": "uint256"
        }
      ],
      "name": "deletePollo",
      "outputs": [],
      "stateMutability": "nonpayable",
      "type": "function"
    },
    {
      "inputs": [],
      "name": "getAllPollo",
      "outputs": [
        {
          "components": [
            {
              "internalType": "string",
              "name": "color",
              "type": "string"
            },
            {
              "internalType": "string",
              "name": "size",
              "type": "string"
            },
            {
              "internalType": "string",
              "name": "sexo",
              "type": "string"
            },
            {
              "internalType": "uint256",
              "name": "precio",
              "type": "uint256"
            },
            {
              "internalType": "uint256",
              "name": "cantidadExistencia",
              "type": "uint256"
            },
            {
              "internalType": "uint256",
              "name": "PolloId",
              "type": "uint256"
            }
          ],
          "internalType": "struct Pollos.Pollo[]",
          "name": "",
          "type": "tuple[]"
        }
      ],
      "stateMutability": "view",
      "type": "function"
    },
    {
      "inputs": [
        {
          "internalType": "uint256",
          "name": "polloId",
          "type": "uint256"
        }
      ],
      "name": "getPolloById",
      "outputs": [
        {
          "components": [
            {
              "internalType": "string",
              "name": "color",
              "type": "string"
            },
            {
              "internalType": "string",
              "name": "size",
              "type": "string"
            },
            {
              "internalType": "string",
              "name": "sexo",
              "type": "string"
            },
            {
              "internalType": "uint256",
              "name": "precio",
              "type": "uint256"
            },
            {
              "internalType": "uint256",
              "name": "cantidadExistencia",
              "type": "uint256"
            },
            {
              "internalType": "uint256",
              "name": "PolloId",
              "type": "uint256"
            }
          ],
          "internalType": "struct Pollos.Pollo",
          "name": "",
          "type": "tuple"
        }
      ],
      "stateMutability": "view",
      "type": "function"
    },
    {
      "inputs": [],
      "name": "owner",
      "outputs": [
        {
          "internalType": "address",
          "name": "",
          "type": "address"
        }
      ],
      "stateMutability": "view",
      "type": "function"
    },
    {
      "inputs": [
        {
          "internalType": "uint256",
          "name": "",
          "type": "uint256"
        }
      ],
      "name": "pollos",
      "outputs": [
        {
          "internalType": "string",
          "name": "color",
          "type": "string"
        },
        {
          "internalType": "string",
          "name": "size",
          "type": "string"
        },
        {
          "internalType": "string",
          "name": "sexo",
          "type": "string"
        },
        {
          "internalType": "uint256",
          "name": "precio",
          "type": "uint256"
        },
        {
          "internalType": "uint256",
          "name": "cantidadExistencia",
          "type": "uint256"
        },
        {
          "internalType": "uint256",
          "name": "PolloId",
          "type": "uint256"
        }
      ],
      "stateMutability": "view",
      "type": "function"
    },
    {
      "inputs": [],
      "name": "renounceOwnership",
      "outputs": [],
      "stateMutability": "nonpayable",
      "type": "function"
    },
    {
      "inputs": [
        {
          "internalType": "address",
          "name": "newOwner",
          "type": "address"
        }
      ],
      "name": "transferOwnership",
      "outputs": [],
      "stateMutability": "nonpayable",
      "type": "function"
    },
    {
      "inputs": [
        {
          "internalType": "uint256",
          "name": "polloId",
          "type": "uint256"
        },
        {
          "internalType": "string",
          "name": "color",
          "type": "string"
        },
        {
          "internalType": "string",
          "name": "size",
          "type": "string"
        },
        {
          "internalType": "string",
          "name": "sexo",
          "type": "string"
        },
        {
          "internalType": "uint256",
          "name": "precio",
          "type": "uint256"
        },
        {
          "internalType": "uint256",
          "name": "cantidadExistencia",
          "type": "uint256"
        }
      ],
      "name": "updatePollo",
      "outputs": [],
      "stateMutability": "nonpayable",
      "type": "function"
    }
  ],
  "bytecode": "0x608060405234801561001057600080fd5b5061002d61002261003260201b60201c565b61003a60201b60201c565b6100fe565b600033905090565b60008060009054906101000a900473ffffffffffffffffffffffffffffffffffffffff169050816000806101000a81548173ffffffffffffffffffffffffffffffffffffffff021916908373ffffffffffffffffffffffffffffffffffffffff1602179055508173ffffffffffffffffffffffffffffffffffffffff168173ffffffffffffffffffffffffffffffffffffffff167f8be0079c531659141344cd1fd0a4f28419497f9722a3daafe3b4186f6b6457e060405160405180910390a35050565b611a578061010d6000396000f3fe608060405234801561001057600080fd5b50600436106100935760003560e01c8063715018a611610066578063715018a6146101325780638d74439b1461013c5780638da5cb5b14610171578063cf3e6c3a1461018f578063f2fde38b146101ab57610093565b8063129ea4e41461009857806312e6e1a9146100b657806336854c38146100e6578063479cc09a14610116575b600080fd5b6100a06101c7565b6040516100ad9190610f7b565b60405180910390f35b6100d060048036038101906100cb9190611112565b61049a565b6040516100dd91906111f0565b60405180910390f35b61010060048036038101906100fb919061120b565b610572565b60405161010d91906112cf565b60405180910390f35b610130600480360381019061012b91906112f1565b610773565b005b61013a61082f565b005b6101566004803603810190610151919061120b565b610843565b6040516101689695949392919061141c565b60405180910390f35b610179610a17565b60405161018691906114d3565b60405180910390f35b6101a960048036038101906101a4919061120b565b610a40565b005b6101c560048036038101906101c0919061151a565b610af5565b005b606060006101d56001610b78565b67ffffffffffffffff8111156101ee576101ed610fbb565b5b60405190808252806020026020018201604052801561022757816020015b610214610ce6565b81526020019060019003908161020c5790505b50905060005b6102376001610b78565b811015610492576000600260006001846102519190611576565b8152602001908152602001600020600501541461048557600260006001836102799190611576565b81526020019081526020016000206040518060c00160405290816000820180546102a2906115d9565b80601f01602080910402602001604051908101604052809291908181526020018280546102ce906115d9565b801561031b5780601f106102f05761010080835404028352916020019161031b565b820191906000526020600020905b8154815290600101906020018083116102fe57829003601f168201915b50505050508152602001600182018054610334906115d9565b80601f0160208091040260200160405190810160405280929190818152602001828054610360906115d9565b80156103ad5780601f10610382576101008083540402835291602001916103ad565b820191906000526020600020905b81548152906001019060200180831161039057829003601f168201915b505050505081526020016002820180546103c6906115d9565b80601f01602080910402602001604051908101604052809291908181526020018280546103f2906115d9565b801561043f5780601f106104145761010080835404028352916020019161043f565b820191906000526020600020905b81548152906001019060200180831161042257829003601f168201915b5050505050815260200160038201548152602001600482015481526020016005820154815250508282815181106104795761047861160a565b5b60200260200101819052505b808060010191505061022d565b508091505090565b60006104a4610b86565b6104ae6001610c04565b60006104ba6001610b78565b905060006040518060c001604052808981526020018881526020018781526020018681526020018581526020018381525090508060026000848152602001908152602001600020600082015181600001908161051691906117e5565b50602082015181600101908161052c91906117e5565b50604082015181600201908161054291906117e5565b50606082015181600301556080820151816004015560a08201518160050155905050819250505095945050505050565b61057a610ce6565b600260008381526020019081526020016000206040518060c00160405290816000820180546105a8906115d9565b80601f01602080910402602001604051908101604052809291908181526020018280546105d4906115d9565b80156106215780601f106105f657610100808354040283529160200191610621565b820191906000526020600020905b81548152906001019060200180831161060457829003601f168201915b5050505050815260200160018201805461063a906115d9565b80601f0160208091040260200160405190810160405280929190818152602001828054610666906115d9565b80156106b35780601f10610688576101008083540402835291602001916106b3565b820191906000526020600020905b81548152906001019060200180831161069657829003601f168201915b505050505081526020016002820180546106cc906115d9565b80601f01602080910402602001604051908101604052809291908181526020018280546106f8906115d9565b80156107455780601f1061071a57610100808354040283529160200191610745565b820191906000526020600020905b81548152906001019060200180831161072857829003601f168201915b5050505050815260200160038201548152602001600482015481526020016005820154815250509050919050565b61077b610b86565b6107856001610b78565b8611156107c7576040517f08c379a00000000000000000000000000000000000000000000000000000000081526004016107be90611903565b60405180910390fd5b6000600260008881526020019081526020016000209050858160000190816107ef91906117e5565b508481600101908161080191906117e5565b508381600201908161081391906117e5565b5082816003018190555081816004018190555050505050505050565b610837610b86565b6108416000610c1a565b565b6002602052806000526040600020600091509050806000018054610866906115d9565b80601f0160208091040260200160405190810160405280929190818152602001828054610892906115d9565b80156108df5780601f106108b4576101008083540402835291602001916108df565b820191906000526020600020905b8154815290600101906020018083116108c257829003601f168201915b5050505050908060010180546108f4906115d9565b80601f0160208091040260200160405190810160405280929190818152602001828054610920906115d9565b801561096d5780601f106109425761010080835404028352916020019161096d565b820191906000526020600020905b81548152906001019060200180831161095057829003601f168201915b505050505090806002018054610982906115d9565b80601f01602080910402602001604051908101604052809291908181526020018280546109ae906115d9565b80156109fb5780601f106109d0576101008083540402835291602001916109fb565b820191906000526020600020905b8154815290600101906020018083116109de57829003601f168201915b5050505050908060030154908060040154908060050154905086565b60008060009054906101000a900473ffffffffffffffffffffffffffffffffffffffff16905090565b610a48610b86565b610a526001610b78565b811115610a94576040517f08c379a0000000000000000000000000000000000000000000000000000000008152600401610a8b90611903565b60405180910390fd5b6002600082815260200190815260200160002060008082016000610ab89190610d1c565b600182016000610ac89190610d1c565b600282016000610ad89190610d1c565b600382016000905560048201600090556005820160009055505050565b610afd610b86565b600073ffffffffffffffffffffffffffffffffffffffff168173ffffffffffffffffffffffffffffffffffffffff1603610b6c576040517f08c379a0000000000000000000000000000000000000000000000000000000008152600401610b6390611995565b60405180910390fd5b610b7581610c1a565b50565b600081600001549050919050565b610b8e610cde565b73ffffffffffffffffffffffffffffffffffffffff16610bac610a17565b73ffffffffffffffffffffffffffffffffffffffff1614610c02576040517f08c379a0000000000000000000000000000000000000000000000000000000008152600401610bf990611a01565b60405180910390fd5b565b6001816000016000828254019250508190555050565b60008060009054906101000a900473ffffffffffffffffffffffffffffffffffffffff169050816000806101000a81548173ffffffffffffffffffffffffffffffffffffffff021916908373ffffffffffffffffffffffffffffffffffffffff1602179055508173ffffffffffffffffffffffffffffffffffffffff168173ffffffffffffffffffffffffffffffffffffffff167f8be0079c531659141344cd1fd0a4f28419497f9722a3daafe3b4186f6b6457e060405160405180910390a35050565b600033905090565b6040518060c001604052806060815260200160608152602001606081526020016000815260200160008152602001600081525090565b508054610d28906115d9565b6000825580601f10610d3a5750610d59565b601f016020900490600052602060002090810190610d589190610d5c565b5b50565b5b80821115610d75576000816000905550600101610d5d565b5090565b600081519050919050565b600082825260208201905092915050565b6000819050602082019050919050565b600081519050919050565b600082825260208201905092915050565b60005b83811015610ddf578082015181840152602081019050610dc4565b60008484015250505050565b6000601f19601f8301169050919050565b6000610e0782610da5565b610e118185610db0565b9350610e21818560208601610dc1565b610e2a81610deb565b840191505092915050565b6000819050919050565b610e4881610e35565b82525050565b600060c0830160008301518482036000860152610e6b8282610dfc565b91505060208301518482036020860152610e858282610dfc565b91505060408301518482036040860152610e9f8282610dfc565b9150506060830151610eb46060860182610e3f565b506080830151610ec76080860182610e3f565b5060a0830151610eda60a0860182610e3f565b508091505092915050565b6000610ef18383610e4e565b905092915050565b6000602082019050919050565b6000610f1182610d79565b610f1b8185610d84565b935083602082028501610f2d85610d95565b8060005b85811015610f695784840389528151610f4a8582610ee5565b9450610f5583610ef9565b925060208a01995050600181019050610f31565b50829750879550505050505092915050565b60006020820190508181036000830152610f958184610f06565b905092915050565b6000604051905090565b600080fd5b600080fd5b600080fd5b600080fd5b7f4e487b7100000000000000000000000000000000000000000000000000000000600052604160045260246000fd5b610ff382610deb565b810181811067ffffffffffffffff8211171561101257611011610fbb565b5b80604052505050565b6000611025610f9d565b90506110318282610fea565b919050565b600067ffffffffffffffff82111561105157611050610fbb565b5b61105a82610deb565b9050602081019050919050565b82818337600083830152505050565b600061108961108484611036565b61101b565b9050828152602081018484840111156110a5576110a4610fb6565b5b6110b0848285611067565b509392505050565b600082601f8301126110cd576110cc610fb1565b5b81356110dd848260208601611076565b91505092915050565b6110ef81610e35565b81146110fa57600080fd5b50565b60008135905061110c816110e6565b92915050565b600080600080600060a0868803121561112e5761112d610fa7565b5b600086013567ffffffffffffffff81111561114c5761114b610fac565b5b611158888289016110b8565b955050602086013567ffffffffffffffff81111561117957611178610fac565b5b611185888289016110b8565b945050604086013567ffffffffffffffff8111156111a6576111a5610fac565b5b6111b2888289016110b8565b93505060606111c3888289016110fd565b92505060806111d4888289016110fd565b9150509295509295909350565b6111ea81610e35565b82525050565b600060208201905061120560008301846111e1565b92915050565b60006020828403121561122157611220610fa7565b5b600061122f848285016110fd565b91505092915050565b600060c08301600083015184820360008601526112558282610dfc565b9150506020830151848203602086015261126f8282610dfc565b915050604083015184820360408601526112898282610dfc565b915050606083015161129e6060860182610e3f565b5060808301516112b16080860182610e3f565b5060a08301516112c460a0860182610e3f565b508091505092915050565b600060208201905081810360008301526112e98184611238565b905092915050565b60008060008060008060c0878903121561130e5761130d610fa7565b5b600061131c89828a016110fd565b965050602087013567ffffffffffffffff81111561133d5761133c610fac565b5b61134989828a016110b8565b955050604087013567ffffffffffffffff81111561136a57611369610fac565b5b61137689828a016110b8565b945050606087013567ffffffffffffffff81111561139757611396610fac565b5b6113a389828a016110b8565b93505060806113b489828a016110fd565b92505060a06113c589828a016110fd565b9150509295509295509295565b600082825260208201905092915050565b60006113ee82610da5565b6113f881856113d2565b9350611408818560208601610dc1565b61141181610deb565b840191505092915050565b600060c082019050818103600083015261143681896113e3565b9050818103602083015261144a81886113e3565b9050818103604083015261145e81876113e3565b905061146d60608301866111e1565b61147a60808301856111e1565b61148760a08301846111e1565b979650505050505050565b600073ffffffffffffffffffffffffffffffffffffffff82169050919050565b60006114bd82611492565b9050919050565b6114cd816114b2565b82525050565b60006020820190506114e860008301846114c4565b92915050565b6114f7816114b2565b811461150257600080fd5b50565b600081359050611514816114ee565b92915050565b6000602082840312156115305761152f610fa7565b5b600061153e84828501611505565b91505092915050565b7f4e487b7100000000000000000000000000000000000000000000000000000000600052601160045260246000fd5b600061158182610e35565b915061158c83610e35565b92508282019050808211156115a4576115a3611547565b5b92915050565b7f4e487b7100000000000000000000000000000000000000000000000000000000600052602260045260246000fd5b600060028204905060018216806115f157607f821691505b602082108103611604576116036115aa565b5b50919050565b7f4e487b7100000000000000000000000000000000000000000000000000000000600052603260045260246000fd5b60008190508160005260206000209050919050565b60006020601f8301049050919050565b600082821b905092915050565b60006008830261169b7fffffffffffffffffffffffffffffffffffffffffffffffffffffffffffffffff8261165e565b6116a5868361165e565b95508019841693508086168417925050509392505050565b6000819050919050565b60006116e26116dd6116d884610e35565b6116bd565b610e35565b9050919050565b6000819050919050565b6116fc836116c7565b611710611708826116e9565b84845461166b565b825550505050565b600090565b611725611718565b6117308184846116f3565b505050565b5b818110156117545761174960008261171d565b600181019050611736565b5050565b601f8211156117995761176a81611639565b6117738461164e565b81016020851015611782578190505b61179661178e8561164e565b830182611735565b50505b505050565b600082821c905092915050565b60006117bc6000198460080261179e565b1980831691505092915050565b60006117d583836117ab565b9150826002028217905092915050565b6117ee82610da5565b67ffffffffffffffff81111561180757611806610fbb565b5b61181182546115d9565b61181c828285611758565b600060209050601f83116001811461184f576000841561183d578287015190505b61184785826117c9565b8655506118af565b601f19841661185d86611639565b60005b8281101561188557848901518255600182019150602085019450602081019050611860565b868310156118a2578489015161189e601f8916826117ab565b8355505b6001600288020188555050505b505050505050565b7f506f6c6c6f20494420646f6573206e6f74206578697374000000000000000000600082015250565b60006118ed6017836113d2565b91506118f8826118b7565b602082019050919050565b6000602082019050818103600083015261191c816118e0565b9050919050565b7f4f776e61626c653a206e6577206f776e657220697320746865207a65726f206160008201527f6464726573730000000000000000000000000000000000000000000000000000602082015250565b600061197f6026836113d2565b915061198a82611923565b604082019050919050565b600060208201905081810360008301526119ae81611972565b9050919050565b7f4f776e61626c653a2063616c6c6572206973206e6f7420746865206f776e6572600082015250565b60006119eb6020836113d2565b91506119f6826119b5565b602082019050919050565b60006020820190508181036000830152611a1a816119de565b905091905056fea264697066735822122008d0a5cdb16c018a68034a31803f9bf88d5c473ee649e4b8faf1cea18b3e73f264736f6c63430008180033",
  "linkReferences": {},
  "deployedLinkReferences": {}
}