{
  "_format": "hh-sol-artifact-1",
  "contractName": "Pollos",
  "sourceName": "contracts/Pollo.sol",
  "abi": [
    {
      "anonymous": false,
      "inputs": [
        {
          "indexed": true,
          "internalType": "address",
          "name": "previousOwner",
          "type": "address"
        },
        {
          "indexed": true,
          "internalType": "address",
          "name": "newOwner",
          "type": "address"
        }
      ],
      "name": "OwnershipTransferred",
      "type": "event"
    },
    {
      "inputs": [
        {
          "internalType": "string",
          "name": "color",
          "type": "string"
        },
        {
          "internalType": "string",
          "name": "size",
          "type": "string"
        },
        {
          "internalType": "string",
          "name": "sexo",
          "type": "string"
        },
        {
          "internalType": "uint256",
          "name": "precio",
          "type": "uint256"
        }
      ],
      "name": "addPollo",
      "outputs": [
        {
          "internalType": "uint256",
          "name": "",
          "type": "uint256"
        }
      ],
      "stateMutability": "nonpayable",
      "type": "function"
    },
    {
      "inputs": [
        {
          "internalType": "uint256",
          "name": "polloId",
          "type": "uint256"
        }
      ],
      "name": "deletePollo",
      "outputs": [],
      "stateMutability": "nonpayable",
      "type": "function"
    },
    {
      "inputs": [],
      "name": "getAllPollo",
      "outputs": [
        {
          "components": [
            {
              "internalType": "string",
              "name": "color",
              "type": "string"
            },
            {
              "internalType": "string",
              "name": "size",
              "type": "string"
            },
            {
              "internalType": "string",
              "name": "sexo",
              "type": "string"
            },
            {
              "internalType": "uint256",
              "name": "precio",
              "type": "uint256"
            },
            {
              "internalType": "uint256",
              "name": "PolloId",
              "type": "uint256"
            }
          ],
          "internalType": "struct Pollos.Pollo[]",
          "name": "",
          "type": "tuple[]"
        }
      ],
      "stateMutability": "view",
      "type": "function"
    },
    {
      "inputs": [
        {
          "internalType": "uint256",
          "name": "polloId",
          "type": "uint256"
        }
      ],
      "name": "getPolloById",
      "outputs": [
        {
          "components": [
            {
              "internalType": "string",
              "name": "color",
              "type": "string"
            },
            {
              "internalType": "string",
              "name": "size",
              "type": "string"
            },
            {
              "internalType": "string",
              "name": "sexo",
              "type": "string"
            },
            {
              "internalType": "uint256",
              "name": "precio",
              "type": "uint256"
            },
            {
              "internalType": "uint256",
              "name": "PolloId",
              "type": "uint256"
            }
          ],
          "internalType": "struct Pollos.Pollo",
          "name": "",
          "type": "tuple"
        }
      ],
      "stateMutability": "view",
      "type": "function"
    },
    {
      "inputs": [],
      "name": "owner",
      "outputs": [
        {
          "internalType": "address",
          "name": "",
          "type": "address"
        }
      ],
      "stateMutability": "view",
      "type": "function"
    },
    {
      "inputs": [
        {
          "internalType": "uint256",
          "name": "",
          "type": "uint256"
        }
      ],
      "name": "pollos",
      "outputs": [
        {
          "internalType": "string",
          "name": "color",
          "type": "string"
        },
        {
          "internalType": "string",
          "name": "size",
          "type": "string"
        },
        {
          "internalType": "string",
          "name": "sexo",
          "type": "string"
        },
        {
          "internalType": "uint256",
          "name": "precio",
          "type": "uint256"
        },
        {
          "internalType": "uint256",
          "name": "PolloId",
          "type": "uint256"
        }
      ],
      "stateMutability": "view",
      "type": "function"
    },
    {
      "inputs": [],
      "name": "renounceOwnership",
      "outputs": [],
      "stateMutability": "nonpayable",
      "type": "function"
    },
    {
      "inputs": [
        {
          "internalType": "address",
          "name": "newOwner",
          "type": "address"
        }
      ],
      "name": "transferOwnership",
      "outputs": [],
      "stateMutability": "nonpayable",
      "type": "function"
    },
    {
      "inputs": [
        {
          "internalType": "uint256",
          "name": "polloId",
          "type": "uint256"
        },
        {
          "internalType": "string",
          "name": "color",
          "type": "string"
        },
        {
          "internalType": "string",
          "name": "size",
          "type": "string"
        },
        {
          "internalType": "string",
          "name": "sexo",
          "type": "string"
        },
        {
          "internalType": "uint256",
          "name": "precio",
          "type": "uint256"
        }
      ],
      "name": "updatePollo",
      "outputs": [],
      "stateMutability": "nonpayable",
      "type": "function"
    }
  ],
  "bytecode": "0x608060405234801561001057600080fd5b5061002d61002261003260201b60201c565b61003a60201b60201c565b6100fe565b600033905090565b60008060009054906101000a900473ffffffffffffffffffffffffffffffffffffffff169050816000806101000a81548173ffffffffffffffffffffffffffffffffffffffff021916908373ffffffffffffffffffffffffffffffffffffffff1602179055508173ffffffffffffffffffffffffffffffffffffffff168173ffffffffffffffffffffffffffffffffffffffff167f8be0079c531659141344cd1fd0a4f28419497f9722a3daafe3b4186f6b6457e060405160405180910390a35050565b6119b88061010d6000396000f3fe608060405234801561001057600080fd5b50600436106100935760003560e01c80638d74439b116100665780638d74439b1461010c5780638da5cb5b146101405780639a48620e1461015e578063cf3e6c3a1461018e578063f2fde38b146101aa57610093565b8063129ea4e414610098578063338feeb3146100b657806336854c38146100d2578063715018a614610102575b600080fd5b6100a06101c6565b6040516100ad9190610f23565b60405180910390f35b6100d060048036038101906100cb91906110ba565b61048f565b005b6100ec60048036038101906100e79190611189565b610541565b6040516100f9919061123a565b60405180910390f35b61010a610738565b005b61012660048036038101906101219190611189565b61074c565b6040516101379594939291906112b5565b60405180910390f35b61014861091a565b604051610155919061135e565b60405180910390f35b61017860048036038101906101739190611379565b610943565b6040516101859190611434565b60405180910390f35b6101a860048036038101906101a39190611189565b610a0a565b005b6101c460048036038101906101bf919061147b565b610ab7565b005b606060006101d46001610b3a565b67ffffffffffffffff8111156101ed576101ec610f8f565b5b60405190808252806020026020018201604052801561022657816020015b610213610ca8565b81526020019060019003908161020b5790505b50905060005b6102366001610b3a565b8110156104875760006002600060018461025091906114d7565b8152602001908152602001600020600401541461047a576002600060018361027891906114d7565b81526020019081526020016000206040518060a00160405290816000820180546102a19061153a565b80601f01602080910402602001604051908101604052809291908181526020018280546102cd9061153a565b801561031a5780601f106102ef5761010080835404028352916020019161031a565b820191906000526020600020905b8154815290600101906020018083116102fd57829003601f168201915b505050505081526020016001820180546103339061153a565b80601f016020809104026020016040519081016040528092919081815260200182805461035f9061153a565b80156103ac5780601f10610381576101008083540402835291602001916103ac565b820191906000526020600020905b81548152906001019060200180831161038f57829003601f168201915b505050505081526020016002820180546103c59061153a565b80601f01602080910402602001604051908101604052809291908181526020018280546103f19061153a565b801561043e5780601f106104135761010080835404028352916020019161043e565b820191906000526020600020905b81548152906001019060200180831161042157829003601f168201915b505050505081526020016003820154815260200160048201548152505082828151811061046e5761046d61156b565b5b60200260200101819052505b808060010191505061022c565b508091505090565b610497610b48565b6104a16001610b3a565b8511156104e3576040517f08c379a00000000000000000000000000000000000000000000000000000000081526004016104da906115e6565b60405180910390fd5b60006002600087815260200190815260200160002090508481600001908161050b91906117b2565b508381600101908161051d91906117b2565b508281600201908161052f91906117b2565b50818160030181905550505050505050565b610549610ca8565b600260008381526020019081526020016000206040518060a00160405290816000820180546105779061153a565b80601f01602080910402602001604051908101604052809291908181526020018280546105a39061153a565b80156105f05780601f106105c5576101008083540402835291602001916105f0565b820191906000526020600020905b8154815290600101906020018083116105d357829003601f168201915b505050505081526020016001820180546106099061153a565b80601f01602080910402602001604051908101604052809291908181526020018280546106359061153a565b80156106825780601f1061065757610100808354040283529160200191610682565b820191906000526020600020905b81548152906001019060200180831161066557829003601f168201915b5050505050815260200160028201805461069b9061153a565b80601f01602080910402602001604051908101604052809291908181526020018280546106c79061153a565b80156107145780601f106106e957610100808354040283529160200191610714565b820191906000526020600020905b8154815290600101906020018083116106f757829003601f168201915b50505050508152602001600382015481526020016004820154815250509050919050565b610740610b48565b61074a6000610bc6565b565b600260205280600052604060002060009150905080600001805461076f9061153a565b80601f016020809104026020016040519081016040528092919081815260200182805461079b9061153a565b80156107e85780601f106107bd576101008083540402835291602001916107e8565b820191906000526020600020905b8154815290600101906020018083116107cb57829003601f168201915b5050505050908060010180546107fd9061153a565b80601f01602080910402602001604051908101604052809291908181526020018280546108299061153a565b80156108765780601f1061084b57610100808354040283529160200191610876565b820191906000526020600020905b81548152906001019060200180831161085957829003601f168201915b50505050509080600201805461088b9061153a565b80601f01602080910402602001604051908101604052809291908181526020018280546108b79061153a565b80156109045780601f106108d957610100808354040283529160200191610904565b820191906000526020600020905b8154815290600101906020018083116108e757829003601f168201915b5050505050908060030154908060040154905085565b60008060009054906101000a900473ffffffffffffffffffffffffffffffffffffffff16905090565b600061094d610b48565b6109576001610c8a565b60006109636001610b3a565b905060006040518060a00160405280888152602001878152602001868152602001858152602001838152509050806002600084815260200190815260200160002060008201518160000190816109b991906117b2565b5060208201518160010190816109cf91906117b2565b5060408201518160020190816109e591906117b2565b5060608201518160030155608082015181600401559050508192505050949350505050565b610a12610b48565b610a1c6001610b3a565b811115610a5e576040517f08c379a0000000000000000000000000000000000000000000000000000000008152600401610a55906115e6565b60405180910390fd5b6002600082815260200190815260200160002060008082016000610a829190610cd7565b600182016000610a929190610cd7565b600282016000610aa29190610cd7565b60038201600090556004820160009055505050565b610abf610b48565b600073ffffffffffffffffffffffffffffffffffffffff168173ffffffffffffffffffffffffffffffffffffffff1603610b2e576040517f08c379a0000000000000000000000000000000000000000000000000000000008152600401610b25906118f6565b60405180910390fd5b610b3781610bc6565b50565b600081600001549050919050565b610b50610ca0565b73ffffffffffffffffffffffffffffffffffffffff16610b6e61091a565b73ffffffffffffffffffffffffffffffffffffffff1614610bc4576040517f08c379a0000000000000000000000000000000000000000000000000000000008152600401610bbb90611962565b60405180910390fd5b565b60008060009054906101000a900473ffffffffffffffffffffffffffffffffffffffff169050816000806101000a81548173ffffffffffffffffffffffffffffffffffffffff021916908373ffffffffffffffffffffffffffffffffffffffff1602179055508173ffffffffffffffffffffffffffffffffffffffff168173ffffffffffffffffffffffffffffffffffffffff167f8be0079c531659141344cd1fd0a4f28419497f9722a3daafe3b4186f6b6457e060405160405180910390a35050565b6001816000016000828254019250508190555050565b600033905090565b6040518060a0016040528060608152602001606081526020016060815260200160008152602001600081525090565b508054610ce39061153a565b6000825580601f10610cf55750610d14565b601f016020900490600052602060002090810190610d139190610d17565b5b50565b5b80821115610d30576000816000905550600101610d18565b5090565b600081519050919050565b600082825260208201905092915050565b6000819050602082019050919050565b600081519050919050565b600082825260208201905092915050565b60005b83811015610d9a578082015181840152602081019050610d7f565b60008484015250505050565b6000601f19601f8301169050919050565b6000610dc282610d60565b610dcc8185610d6b565b9350610ddc818560208601610d7c565b610de581610da6565b840191505092915050565b6000819050919050565b610e0381610df0565b82525050565b600060a0830160008301518482036000860152610e268282610db7565b91505060208301518482036020860152610e408282610db7565b91505060408301518482036040860152610e5a8282610db7565b9150506060830151610e6f6060860182610dfa565b506080830151610e826080860182610dfa565b508091505092915050565b6000610e998383610e09565b905092915050565b6000602082019050919050565b6000610eb982610d34565b610ec38185610d3f565b935083602082028501610ed585610d50565b8060005b85811015610f115784840389528151610ef28582610e8d565b9450610efd83610ea1565b925060208a01995050600181019050610ed9565b50829750879550505050505092915050565b60006020820190508181036000830152610f3d8184610eae565b905092915050565b6000604051905090565b600080fd5b600080fd5b610f6281610df0565b8114610f6d57600080fd5b50565b600081359050610f7f81610f59565b92915050565b600080fd5b600080fd5b7f4e487b7100000000000000000000000000000000000000000000000000000000600052604160045260246000fd5b610fc782610da6565b810181811067ffffffffffffffff82111715610fe657610fe5610f8f565b5b80604052505050565b6000610ff9610f45565b90506110058282610fbe565b919050565b600067ffffffffffffffff82111561102557611024610f8f565b5b61102e82610da6565b9050602081019050919050565b82818337600083830152505050565b600061105d6110588461100a565b610fef565b90508281526020810184848401111561107957611078610f8a565b5b61108484828561103b565b509392505050565b600082601f8301126110a1576110a0610f85565b5b81356110b184826020860161104a565b91505092915050565b600080600080600060a086880312156110d6576110d5610f4f565b5b60006110e488828901610f70565b955050602086013567ffffffffffffffff81111561110557611104610f54565b5b6111118882890161108c565b945050604086013567ffffffffffffffff81111561113257611131610f54565b5b61113e8882890161108c565b935050606086013567ffffffffffffffff81111561115f5761115e610f54565b5b61116b8882890161108c565b925050608061117c88828901610f70565b9150509295509295909350565b60006020828403121561119f5761119e610f4f565b5b60006111ad84828501610f70565b91505092915050565b600060a08301600083015184820360008601526111d38282610db7565b915050602083015184820360208601526111ed8282610db7565b915050604083015184820360408601526112078282610db7565b915050606083015161121c6060860182610dfa565b50608083015161122f6080860182610dfa565b508091505092915050565b6000602082019050818103600083015261125481846111b6565b905092915050565b600082825260208201905092915050565b600061127882610d60565b611282818561125c565b9350611292818560208601610d7c565b61129b81610da6565b840191505092915050565b6112af81610df0565b82525050565b600060a08201905081810360008301526112cf818861126d565b905081810360208301526112e3818761126d565b905081810360408301526112f7818661126d565b905061130660608301856112a6565b61131360808301846112a6565b9695505050505050565b600073ffffffffffffffffffffffffffffffffffffffff82169050919050565b60006113488261131d565b9050919050565b6113588161133d565b82525050565b6000602082019050611373600083018461134f565b92915050565b6000806000806080858703121561139357611392610f4f565b5b600085013567ffffffffffffffff8111156113b1576113b0610f54565b5b6113bd8782880161108c565b945050602085013567ffffffffffffffff8111156113de576113dd610f54565b5b6113ea8782880161108c565b935050604085013567ffffffffffffffff81111561140b5761140a610f54565b5b6114178782880161108c565b925050606061142887828801610f70565b91505092959194509250565b600060208201905061144960008301846112a6565b92915050565b6114588161133d565b811461146357600080fd5b50565b6000813590506114758161144f565b92915050565b60006020828403121561149157611490610f4f565b5b600061149f84828501611466565b91505092915050565b7f4e487b7100000000000000000000000000000000000000000000000000000000600052601160045260246000fd5b60006114e282610df0565b91506114ed83610df0565b9250828201905080821115611505576115046114a8565b5b92915050565b7f4e487b7100000000000000000000000000000000000000000000000000000000600052602260045260246000fd5b6000600282049050600182168061155257607f821691505b6020821081036115655761156461150b565b5b50919050565b7f4e487b7100000000000000000000000000000000000000000000000000000000600052603260045260246000fd5b7f506f6c6c6f20494420646f6573206e6f74206578697374000000000000000000600082015250565b60006115d060178361125c565b91506115db8261159a565b602082019050919050565b600060208201905081810360008301526115ff816115c3565b9050919050565b60008190508160005260206000209050919050565b60006020601f8301049050919050565b600082821b905092915050565b6000600883026116687fffffffffffffffffffffffffffffffffffffffffffffffffffffffffffffffff8261162b565b611672868361162b565b95508019841693508086168417925050509392505050565b6000819050919050565b60006116af6116aa6116a584610df0565b61168a565b610df0565b9050919050565b6000819050919050565b6116c983611694565b6116dd6116d5826116b6565b848454611638565b825550505050565b600090565b6116f26116e5565b6116fd8184846116c0565b505050565b5b81811015611721576117166000826116ea565b600181019050611703565b5050565b601f8211156117665761173781611606565b6117408461161b565b8101602085101561174f578190505b61176361175b8561161b565b830182611702565b50505b505050565b600082821c905092915050565b60006117896000198460080261176b565b1980831691505092915050565b60006117a28383611778565b9150826002028217905092915050565b6117bb82610d60565b67ffffffffffffffff8111156117d4576117d3610f8f565b5b6117de825461153a565b6117e9828285611725565b600060209050601f83116001811461181c576000841561180a578287015190505b6118148582611796565b86555061187c565b601f19841661182a86611606565b60005b828110156118525784890151825560018201915060208501945060208101905061182d565b8683101561186f578489015161186b601f891682611778565b8355505b6001600288020188555050505b505050505050565b7f4f776e61626c653a206e6577206f776e657220697320746865207a65726f206160008201527f6464726573730000000000000000000000000000000000000000000000000000602082015250565b60006118e060268361125c565b91506118eb82611884565b604082019050919050565b6000602082019050818103600083015261190f816118d3565b9050919050565b7f4f776e61626c653a2063616c6c6572206973206e6f7420746865206f776e6572600082015250565b600061194c60208361125c565b915061195782611916565b602082019050919050565b6000602082019050818103600083015261197b8161193f565b905091905056fea2646970667358221220907f383d0f0110da882d6e76c1e7b95a0cc756e116fd24df3e163401077ccfc264736f6c63430008180033",
  "linkReferences": {},
  "deployedLinkReferences": {}
}