{
  "_format": "hh-sol-artifact-1",
  "contractName": "envioClientes",
  "sourceName": "contracts/envioCliente.sol",
  "abi": [
    {
      "anonymous": false,
      "inputs": [
        {
          "indexed": true,
          "internalType": "address",
          "name": "previousOwner",
          "type": "address"
        },
        {
          "indexed": true,
          "internalType": "address",
          "name": "newOwner",
          "type": "address"
        }
      ],
      "name": "OwnershipTransferred",
      "type": "event"
    },
    {
      "inputs": [
        {
          "internalType": "string",
          "name": "nombreTienda",
          "type": "string"
        },
        {
          "internalType": "string",
          "name": "nombreEncargado",
          "type": "string"
        },
        {
          "internalType": "string",
          "name": "direccion",
          "type": "string"
        }
      ],
      "name": "addenvioCliente",
      "outputs": [
        {
          "internalType": "uint256",
          "name": "",
          "type": "uint256"
        }
      ],
      "stateMutability": "nonpayable",
      "type": "function"
    },
    {
      "inputs": [
        {
          "internalType": "uint256",
          "name": "clienteId",
          "type": "uint256"
        }
      ],
      "name": "deleteenvioCliente",
      "outputs": [],
      "stateMutability": "nonpayable",
      "type": "function"
    },
    {
      "inputs": [
        {
          "internalType": "uint256",
          "name": "",
          "type": "uint256"
        }
      ],
      "name": "envCliente",
      "outputs": [
        {
          "internalType": "string",
          "name": "nombreTienda",
          "type": "string"
        },
        {
          "internalType": "string",
          "name": "nombreEncargado",
          "type": "string"
        },
        {
          "internalType": "string",
          "name": "direccion",
          "type": "string"
        },
        {
          "internalType": "uint256",
          "name": "envioClienteId",
          "type": "uint256"
        }
      ],
      "stateMutability": "view",
      "type": "function"
    },
    {
      "inputs": [],
      "name": "getAllenvioCliente",
      "outputs": [
        {
          "components": [
            {
              "internalType": "string",
              "name": "nombreTienda",
              "type": "string"
            },
            {
              "internalType": "string",
              "name": "nombreEncargado",
              "type": "string"
            },
            {
              "internalType": "string",
              "name": "direccion",
              "type": "string"
            },
            {
              "internalType": "uint256",
              "name": "envioClienteId",
              "type": "uint256"
            }
          ],
          "internalType": "struct envioClientes.envioCliente[]",
          "name": "",
          "type": "tuple[]"
        }
      ],
      "stateMutability": "view",
      "type": "function"
    },
    {
      "inputs": [],
      "name": "owner",
      "outputs": [
        {
          "internalType": "address",
          "name": "",
          "type": "address"
        }
      ],
      "stateMutability": "view",
      "type": "function"
    },
    {
      "inputs": [],
      "name": "renounceOwnership",
      "outputs": [],
      "stateMutability": "nonpayable",
      "type": "function"
    },
    {
      "inputs": [
        {
          "internalType": "address",
          "name": "newOwner",
          "type": "address"
        }
      ],
      "name": "transferOwnership",
      "outputs": [],
      "stateMutability": "nonpayable",
      "type": "function"
    }
  ],
  "bytecode": "0x608060405234801561001057600080fd5b5061002d61002261003260201b60201c565b61003a60201b60201c565b6100fe565b600033905090565b60008060009054906101000a900473ffffffffffffffffffffffffffffffffffffffff169050816000806101000a81548173ffffffffffffffffffffffffffffffffffffffff021916908373ffffffffffffffffffffffffffffffffffffffff1602179055508173ffffffffffffffffffffffffffffffffffffffff168173ffffffffffffffffffffffffffffffffffffffff167f8be0079c531659141344cd1fd0a4f28419497f9722a3daafe3b4186f6b6457e060405160405180910390a35050565b6114d28061010d6000396000f3fe608060405234801561001057600080fd5b506004361061007d5760003560e01c8063a2d8660a1161005b578063a2d8660a146100c8578063bde86dac146100fb578063f0f18e6a1461012b578063f2fde38b146101475761007d565b8063270773de14610082578063715018a6146100a05780638da5cb5b146100aa575b600080fd5b61008a610163565b6040516100979190610bd4565b60405180910390f35b6100a8610422565b005b6100b2610436565b6040516100bf9190610c37565b60405180910390f35b6100e260048036038101906100dd9190610c92565b61045f565b6040516100f29493929190610d18565b60405180910390f35b61011560048036038101906101109190610ea7565b610627565b6040516101229190610f4e565b60405180910390f35b61014560048036038101906101409190610c92565b6106dd565b005b610161600480360381019061015c9190610f95565b610782565b005b606060006101716001610805565b67ffffffffffffffff81111561018a57610189610d7c565b5b6040519080825280602002602001820160405280156101c357816020015b6101b0610973565b8152602001906001900390816101a85790505b50905060005b6101d36001610805565b81101561041a576000600260006001846101ed9190610ff1565b8152602001908152602001600020600301541461040d57600260006001836102159190610ff1565b815260200190815260200160002060405180608001604052908160008201805461023e90611054565b80601f016020809104026020016040519081016040528092919081815260200182805461026a90611054565b80156102b75780601f1061028c576101008083540402835291602001916102b7565b820191906000526020600020905b81548152906001019060200180831161029a57829003601f168201915b505050505081526020016001820180546102d090611054565b80601f01602080910402602001604051908101604052809291908181526020018280546102fc90611054565b80156103495780601f1061031e57610100808354040283529160200191610349565b820191906000526020600020905b81548152906001019060200180831161032c57829003601f168201915b5050505050815260200160028201805461036290611054565b80601f016020809104026020016040519081016040528092919081815260200182805461038e90611054565b80156103db5780601f106103b0576101008083540402835291602001916103db565b820191906000526020600020905b8154815290600101906020018083116103be57829003601f168201915b5050505050815260200160038201548152505082828151811061040157610400611085565b5b60200260200101819052505b80806001019150506101c9565b508091505090565b61042a610813565b6104346000610891565b565b60008060009054906101000a900473ffffffffffffffffffffffffffffffffffffffff16905090565b600260205280600052604060002060009150905080600001805461048290611054565b80601f01602080910402602001604051908101604052809291908181526020018280546104ae90611054565b80156104fb5780601f106104d0576101008083540402835291602001916104fb565b820191906000526020600020905b8154815290600101906020018083116104de57829003601f168201915b50505050509080600101805461051090611054565b80601f016020809104026020016040519081016040528092919081815260200182805461053c90611054565b80156105895780601f1061055e57610100808354040283529160200191610589565b820191906000526020600020905b81548152906001019060200180831161056c57829003601f168201915b50505050509080600201805461059e90611054565b80601f01602080910402602001604051908101604052809291908181526020018280546105ca90611054565b80156106175780601f106105ec57610100808354040283529160200191610617565b820191906000526020600020905b8154815290600101906020018083116105fa57829003601f168201915b5050505050908060030154905084565b6000610631610813565b61063b6001610955565b60006106476001610805565b905060006040518060800160405280878152602001868152602001858152602001838152509050806002600084815260200190815260200160002060008201518160000190816106979190611260565b5060208201518160010190816106ad9190611260565b5060408201518160020190816106c39190611260565b506060820151816003015590505081925050509392505050565b6106e5610813565b6106ef6001610805565b811115610731576040517f08c379a00000000000000000000000000000000000000000000000000000000081526004016107289061137e565b60405180910390fd5b6002600082815260200190815260200160002060008082016000610755919061099b565b600182016000610765919061099b565b600282016000610775919061099b565b6003820160009055505050565b61078a610813565b600073ffffffffffffffffffffffffffffffffffffffff168173ffffffffffffffffffffffffffffffffffffffff16036107f9576040517f08c379a00000000000000000000000000000000000000000000000000000000081526004016107f090611410565b60405180910390fd5b61080281610891565b50565b600081600001549050919050565b61081b61096b565b73ffffffffffffffffffffffffffffffffffffffff16610839610436565b73ffffffffffffffffffffffffffffffffffffffff161461088f576040517f08c379a00000000000000000000000000000000000000000000000000000000081526004016108869061147c565b60405180910390fd5b565b60008060009054906101000a900473ffffffffffffffffffffffffffffffffffffffff169050816000806101000a81548173ffffffffffffffffffffffffffffffffffffffff021916908373ffffffffffffffffffffffffffffffffffffffff1602179055508173ffffffffffffffffffffffffffffffffffffffff168173ffffffffffffffffffffffffffffffffffffffff167f8be0079c531659141344cd1fd0a4f28419497f9722a3daafe3b4186f6b6457e060405160405180910390a35050565b6001816000016000828254019250508190555050565b600033905090565b6040518060800160405280606081526020016060815260200160608152602001600081525090565b5080546109a790611054565b6000825580601f106109b957506109d8565b601f0160209004906000526020600020908101906109d791906109db565b5b50565b5b808211156109f45760008160009055506001016109dc565b5090565b600081519050919050565b600082825260208201905092915050565b6000819050602082019050919050565b600081519050919050565b600082825260208201905092915050565b60005b83811015610a5e578082015181840152602081019050610a43565b60008484015250505050565b6000601f19601f8301169050919050565b6000610a8682610a24565b610a908185610a2f565b9350610aa0818560208601610a40565b610aa981610a6a565b840191505092915050565b6000819050919050565b610ac781610ab4565b82525050565b60006080830160008301518482036000860152610aea8282610a7b565b91505060208301518482036020860152610b048282610a7b565b91505060408301518482036040860152610b1e8282610a7b565b9150506060830151610b336060860182610abe565b508091505092915050565b6000610b4a8383610acd565b905092915050565b6000602082019050919050565b6000610b6a826109f8565b610b748185610a03565b935083602082028501610b8685610a14565b8060005b85811015610bc25784840389528151610ba38582610b3e565b9450610bae83610b52565b925060208a01995050600181019050610b8a565b50829750879550505050505092915050565b60006020820190508181036000830152610bee8184610b5f565b905092915050565b600073ffffffffffffffffffffffffffffffffffffffff82169050919050565b6000610c2182610bf6565b9050919050565b610c3181610c16565b82525050565b6000602082019050610c4c6000830184610c28565b92915050565b6000604051905090565b600080fd5b600080fd5b610c6f81610ab4565b8114610c7a57600080fd5b50565b600081359050610c8c81610c66565b92915050565b600060208284031215610ca857610ca7610c5c565b5b6000610cb684828501610c7d565b91505092915050565b600082825260208201905092915050565b6000610cdb82610a24565b610ce58185610cbf565b9350610cf5818560208601610a40565b610cfe81610a6a565b840191505092915050565b610d1281610ab4565b82525050565b60006080820190508181036000830152610d328187610cd0565b90508181036020830152610d468186610cd0565b90508181036040830152610d5a8185610cd0565b9050610d696060830184610d09565b95945050505050565b600080fd5b600080fd5b7f4e487b7100000000000000000000000000000000000000000000000000000000600052604160045260246000fd5b610db482610a6a565b810181811067ffffffffffffffff82111715610dd357610dd2610d7c565b5b80604052505050565b6000610de6610c52565b9050610df28282610dab565b919050565b600067ffffffffffffffff821115610e1257610e11610d7c565b5b610e1b82610a6a565b9050602081019050919050565b82818337600083830152505050565b6000610e4a610e4584610df7565b610ddc565b905082815260208101848484011115610e6657610e65610d77565b5b610e71848285610e28565b509392505050565b600082601f830112610e8e57610e8d610d72565b5b8135610e9e848260208601610e37565b91505092915050565b600080600060608486031215610ec057610ebf610c5c565b5b600084013567ffffffffffffffff811115610ede57610edd610c61565b5b610eea86828701610e79565b935050602084013567ffffffffffffffff811115610f0b57610f0a610c61565b5b610f1786828701610e79565b925050604084013567ffffffffffffffff811115610f3857610f37610c61565b5b610f4486828701610e79565b9150509250925092565b6000602082019050610f636000830184610d09565b92915050565b610f7281610c16565b8114610f7d57600080fd5b50565b600081359050610f8f81610f69565b92915050565b600060208284031215610fab57610faa610c5c565b5b6000610fb984828501610f80565b91505092915050565b7f4e487b7100000000000000000000000000000000000000000000000000000000600052601160045260246000fd5b6000610ffc82610ab4565b915061100783610ab4565b925082820190508082111561101f5761101e610fc2565b5b92915050565b7f4e487b7100000000000000000000000000000000000000000000000000000000600052602260045260246000fd5b6000600282049050600182168061106c57607f821691505b60208210810361107f5761107e611025565b5b50919050565b7f4e487b7100000000000000000000000000000000000000000000000000000000600052603260045260246000fd5b60008190508160005260206000209050919050565b60006020601f8301049050919050565b600082821b905092915050565b6000600883026111167fffffffffffffffffffffffffffffffffffffffffffffffffffffffffffffffff826110d9565b61112086836110d9565b95508019841693508086168417925050509392505050565b6000819050919050565b600061115d61115861115384610ab4565b611138565b610ab4565b9050919050565b6000819050919050565b61117783611142565b61118b61118382611164565b8484546110e6565b825550505050565b600090565b6111a0611193565b6111ab81848461116e565b505050565b5b818110156111cf576111c4600082611198565b6001810190506111b1565b5050565b601f821115611214576111e5816110b4565b6111ee846110c9565b810160208510156111fd578190505b611211611209856110c9565b8301826111b0565b50505b505050565b600082821c905092915050565b600061123760001984600802611219565b1980831691505092915050565b60006112508383611226565b9150826002028217905092915050565b61126982610a24565b67ffffffffffffffff81111561128257611281610d7c565b5b61128c8254611054565b6112978282856111d3565b600060209050601f8311600181146112ca57600084156112b8578287015190505b6112c28582611244565b86555061132a565b601f1984166112d8866110b4565b60005b82811015611300578489015182556001820191506020850194506020810190506112db565b8683101561131d5784890151611319601f891682611226565b8355505b6001600288020188555050505b505050505050565b7f656e76696f436c69656e746520494420646f6573206e6f742065786973740000600082015250565b6000611368601e83610cbf565b915061137382611332565b602082019050919050565b600060208201905081810360008301526113978161135b565b9050919050565b7f4f776e61626c653a206e6577206f776e657220697320746865207a65726f206160008201527f6464726573730000000000000000000000000000000000000000000000000000602082015250565b60006113fa602683610cbf565b91506114058261139e565b604082019050919050565b60006020820190508181036000830152611429816113ed565b9050919050565b7f4f776e61626c653a2063616c6c6572206973206e6f7420746865206f776e6572600082015250565b6000611466602083610cbf565b915061147182611430565b602082019050919050565b6000602082019050818103600083015261149581611459565b905091905056fea26469706673582212201f2e98f4b0f89e39f4c9b746df0236ec4504c74ee1d6ba81143dc04f5aa03bcc64736f6c63430008180033",
  "linkReferences": {},
  "deployedLinkReferences": {}
}