{
  "_format": "hh-sol-artifact-1",
  "contractName": "Chocolates",
  "sourceName": "contracts/Chocolate.sol",
  "abi": [
    {
      "anonymous": false,
      "inputs": [
        {
          "indexed": true,
          "internalType": "address",
          "name": "previousOwner",
          "type": "address"
        },
        {
          "indexed": true,
          "internalType": "address",
          "name": "newOwner",
          "type": "address"
        }
      ],
      "name": "OwnershipTransferred",
      "type": "event"
    },
    {
      "inputs": [
        {
          "internalType": "string",
          "name": "nombre",
          "type": "string"
        },
        {
          "internalType": "string",
          "name": "tipo",
          "type": "string"
        },
        {
          "internalType": "string",
          "name": "descripcion",
          "type": "string"
        },
        {
          "internalType": "uint256",
          "name": "precio",
          "type": "uint256"
        },
        {
          "internalType": "uint256",
          "name": "cantidadExistencia",
          "type": "uint256"
        }
      ],
      "name": "addChocolate",
      "outputs": [
        {
          "internalType": "uint256",
          "name": "",
          "type": "uint256"
        }
      ],
      "stateMutability": "nonpayable",
      "type": "function"
    },
    {
      "inputs": [
        {
          "internalType": "uint256",
          "name": "",
          "type": "uint256"
        }
      ],
      "name": "chocos",
      "outputs": [
        {
          "internalType": "string",
          "name": "nombre",
          "type": "string"
        },
        {
          "internalType": "string",
          "name": "tipo",
          "type": "string"
        },
        {
          "internalType": "string",
          "name": "descripcion",
          "type": "string"
        },
        {
          "internalType": "uint256",
          "name": "precio",
          "type": "uint256"
        },
        {
          "internalType": "uint256",
          "name": "cantidadExistencia",
          "type": "uint256"
        },
        {
          "internalType": "uint256",
          "name": "ChocoId",
          "type": "uint256"
        }
      ],
      "stateMutability": "view",
      "type": "function"
    },
    {
      "inputs": [
        {
          "internalType": "uint256",
          "name": "chocoId",
          "type": "uint256"
        }
      ],
      "name": "deleteChocolate",
      "outputs": [],
      "stateMutability": "nonpayable",
      "type": "function"
    },
    {
      "inputs": [],
      "name": "getAllChocolates",
      "outputs": [
        {
          "components": [
            {
              "internalType": "string",
              "name": "nombre",
              "type": "string"
            },
            {
              "internalType": "string",
              "name": "tipo",
              "type": "string"
            },
            {
              "internalType": "string",
              "name": "descripcion",
              "type": "string"
            },
            {
              "internalType": "uint256",
              "name": "precio",
              "type": "uint256"
            },
            {
              "internalType": "uint256",
              "name": "cantidadExistencia",
              "type": "uint256"
            },
            {
              "internalType": "uint256",
              "name": "ChocoId",
              "type": "uint256"
            }
          ],
          "internalType": "struct Chocolates.Chocolate[]",
          "name": "",
          "type": "tuple[]"
        }
      ],
      "stateMutability": "view",
      "type": "function"
    },
    {
      "inputs": [
        {
          "internalType": "uint256",
          "name": "chocoId",
          "type": "uint256"
        }
      ],
      "name": "getChocolateById",
      "outputs": [
        {
          "components": [
            {
              "internalType": "string",
              "name": "nombre",
              "type": "string"
            },
            {
              "internalType": "string",
              "name": "tipo",
              "type": "string"
            },
            {
              "internalType": "string",
              "name": "descripcion",
              "type": "string"
            },
            {
              "internalType": "uint256",
              "name": "precio",
              "type": "uint256"
            },
            {
              "internalType": "uint256",
              "name": "cantidadExistencia",
              "type": "uint256"
            },
            {
              "internalType": "uint256",
              "name": "ChocoId",
              "type": "uint256"
            }
          ],
          "internalType": "struct Chocolates.Chocolate",
          "name": "",
          "type": "tuple"
        }
      ],
      "stateMutability": "view",
      "type": "function"
    },
    {
      "inputs": [],
      "name": "owner",
      "outputs": [
        {
          "internalType": "address",
          "name": "",
          "type": "address"
        }
      ],
      "stateMutability": "view",
      "type": "function"
    },
    {
      "inputs": [],
      "name": "renounceOwnership",
      "outputs": [],
      "stateMutability": "nonpayable",
      "type": "function"
    },
    {
      "inputs": [
        {
          "internalType": "address",
          "name": "newOwner",
          "type": "address"
        }
      ],
      "name": "transferOwnership",
      "outputs": [],
      "stateMutability": "nonpayable",
      "type": "function"
    },
    {
      "inputs": [
        {
          "internalType": "uint256",
          "name": "chocoId",
          "type": "uint256"
        },
        {
          "internalType": "string",
          "name": "nombre",
          "type": "string"
        },
        {
          "internalType": "string",
          "name": "tipo",
          "type": "string"
        },
        {
          "internalType": "string",
          "name": "descripcion",
          "type": "string"
        },
        {
          "internalType": "uint256",
          "name": "precio",
          "type": "uint256"
        },
        {
          "internalType": "uint256",
          "name": "cantidadExistencia",
          "type": "uint256"
        }
      ],
      "name": "updateChocolate",
      "outputs": [],
      "stateMutability": "nonpayable",
      "type": "function"
    }
  ],
  "bytecode": "0x608060405234801561001057600080fd5b5061002d61002261003260201b60201c565b61003a60201b60201c565b6100fe565b600033905090565b60008060009054906101000a900473ffffffffffffffffffffffffffffffffffffffff169050816000806101000a81548173ffffffffffffffffffffffffffffffffffffffff021916908373ffffffffffffffffffffffffffffffffffffffff1602179055508173ffffffffffffffffffffffffffffffffffffffff168173ffffffffffffffffffffffffffffffffffffffff167f8be0079c531659141344cd1fd0a4f28419497f9722a3daafe3b4186f6b6457e060405160405180910390a35050565b611a578061010d6000396000f3fe608060405234801561001057600080fd5b50600436106100935760003560e01c80638da5cb5b116100665780638da5cb5b1461010a57806391555e9a146101285780639e205ca914610146578063ea0a7a9314610176578063f2fde38b146101ab57610093565b80630fe23c59146100985780635e16633d146100b4578063715018a6146100e45780637538de93146100ee575b600080fd5b6100b260048036038101906100ad9190610dc3565b6101c7565b005b6100ce60048036038101906100c99190610f36565b61027c565b6040516100db9190611014565b60405180910390f35b6100ec610354565b005b6101086004803603810190610103919061102f565b610368565b005b610112610424565b60405161011f9190611151565b60405180910390f35b61013061044d565b60405161013d9190611353565b60405180910390f35b610160600480360381019061015b9190610dc3565b610720565b60405161016d919061140c565b60405180910390f35b610190600480360381019061018b9190610dc3565b610921565b6040516101a296959493929190611478565b60405180910390f35b6101c560048036038101906101c0919061151a565b610af5565b005b6101cf610b78565b6101d96001610bf6565b81111561021b576040517f08c379a000000000000000000000000000000000000000000000000000000000815260040161021290611593565b60405180910390fd5b600260008281526020019081526020016000206000808201600061023f9190610ce6565b60018201600061024f9190610ce6565b60028201600061025f9190610ce6565b600382016000905560048201600090556005820160009055505050565b6000610286610b78565b6102906001610c04565b600061029c6001610bf6565b905060006040518060c00160405280898152602001888152602001878152602001868152602001858152602001838152509050806002600084815260200190815260200160002060008201518160000190816102f891906117bf565b50602082015181600101908161030e91906117bf565b50604082015181600201908161032491906117bf565b50606082015181600301556080820151816004015560a08201518160050155905050819250505095945050505050565b61035c610b78565b6103666000610c1a565b565b610370610b78565b61037a6001610bf6565b8611156103bc576040517f08c379a00000000000000000000000000000000000000000000000000000000081526004016103b390611593565b60405180910390fd5b6000600260008881526020019081526020016000209050858160000190816103e491906117bf565b50848160010190816103f691906117bf565b508381600201908161040891906117bf565b5082816003018190555081816004018190555050505050505050565b60008060009054906101000a900473ffffffffffffffffffffffffffffffffffffffff16905090565b6060600061045b6001610bf6565b67ffffffffffffffff81111561047457610473610e0b565b5b6040519080825280602002602001820160405280156104ad57816020015b61049a610d26565b8152602001906001900390816104925790505b50905060005b6104bd6001610bf6565b811015610718576000600260006001846104d791906118c0565b8152602001908152602001600020600501541461070b57600260006001836104ff91906118c0565b81526020019081526020016000206040518060c0016040529081600082018054610528906115e2565b80601f0160208091040260200160405190810160405280929190818152602001828054610554906115e2565b80156105a15780601f10610576576101008083540402835291602001916105a1565b820191906000526020600020905b81548152906001019060200180831161058457829003601f168201915b505050505081526020016001820180546105ba906115e2565b80601f01602080910402602001604051908101604052809291908181526020018280546105e6906115e2565b80156106335780601f1061060857610100808354040283529160200191610633565b820191906000526020600020905b81548152906001019060200180831161061657829003601f168201915b5050505050815260200160028201805461064c906115e2565b80601f0160208091040260200160405190810160405280929190818152602001828054610678906115e2565b80156106c55780601f1061069a576101008083540402835291602001916106c5565b820191906000526020600020905b8154815290600101906020018083116106a857829003601f168201915b5050505050815260200160038201548152602001600482015481526020016005820154815250508282815181106106ff576106fe6118f4565b5b60200260200101819052505b80806001019150506104b3565b508091505090565b610728610d26565b600260008381526020019081526020016000206040518060c0016040529081600082018054610756906115e2565b80601f0160208091040260200160405190810160405280929190818152602001828054610782906115e2565b80156107cf5780601f106107a4576101008083540402835291602001916107cf565b820191906000526020600020905b8154815290600101906020018083116107b257829003601f168201915b505050505081526020016001820180546107e8906115e2565b80601f0160208091040260200160405190810160405280929190818152602001828054610814906115e2565b80156108615780601f1061083657610100808354040283529160200191610861565b820191906000526020600020905b81548152906001019060200180831161084457829003601f168201915b5050505050815260200160028201805461087a906115e2565b80601f01602080910402602001604051908101604052809291908181526020018280546108a6906115e2565b80156108f35780601f106108c8576101008083540402835291602001916108f3565b820191906000526020600020905b8154815290600101906020018083116108d657829003601f168201915b5050505050815260200160038201548152602001600482015481526020016005820154815250509050919050565b6002602052806000526040600020600091509050806000018054610944906115e2565b80601f0160208091040260200160405190810160405280929190818152602001828054610970906115e2565b80156109bd5780601f10610992576101008083540402835291602001916109bd565b820191906000526020600020905b8154815290600101906020018083116109a057829003601f168201915b5050505050908060010180546109d2906115e2565b80601f01602080910402602001604051908101604052809291908181526020018280546109fe906115e2565b8015610a4b5780601f10610a2057610100808354040283529160200191610a4b565b820191906000526020600020905b815481529060010190602001808311610a2e57829003601f168201915b505050505090806002018054610a60906115e2565b80601f0160208091040260200160405190810160405280929190818152602001828054610a8c906115e2565b8015610ad95780601f10610aae57610100808354040283529160200191610ad9565b820191906000526020600020905b815481529060010190602001808311610abc57829003601f168201915b5050505050908060030154908060040154908060050154905086565b610afd610b78565b600073ffffffffffffffffffffffffffffffffffffffff168173ffffffffffffffffffffffffffffffffffffffff1603610b6c576040517f08c379a0000000000000000000000000000000000000000000000000000000008152600401610b6390611995565b60405180910390fd5b610b7581610c1a565b50565b610b80610cde565b73ffffffffffffffffffffffffffffffffffffffff16610b9e610424565b73ffffffffffffffffffffffffffffffffffffffff1614610bf4576040517f08c379a0000000000000000000000000000000000000000000000000000000008152600401610beb90611a01565b60405180910390fd5b565b600081600001549050919050565b6001816000016000828254019250508190555050565b60008060009054906101000a900473ffffffffffffffffffffffffffffffffffffffff169050816000806101000a81548173ffffffffffffffffffffffffffffffffffffffff021916908373ffffffffffffffffffffffffffffffffffffffff1602179055508173ffffffffffffffffffffffffffffffffffffffff168173ffffffffffffffffffffffffffffffffffffffff167f8be0079c531659141344cd1fd0a4f28419497f9722a3daafe3b4186f6b6457e060405160405180910390a35050565b600033905090565b508054610cf2906115e2565b6000825580601f10610d045750610d23565b601f016020900490600052602060002090810190610d229190610d5c565b5b50565b6040518060c001604052806060815260200160608152602001606081526020016000815260200160008152602001600081525090565b5b80821115610d75576000816000905550600101610d5d565b5090565b6000604051905090565b600080fd5b600080fd5b6000819050919050565b610da081610d8d565b8114610dab57600080fd5b50565b600081359050610dbd81610d97565b92915050565b600060208284031215610dd957610dd8610d83565b5b6000610de784828501610dae565b91505092915050565b600080fd5b600080fd5b6000601f19601f8301169050919050565b7f4e487b7100000000000000000000000000000000000000000000000000000000600052604160045260246000fd5b610e4382610dfa565b810181811067ffffffffffffffff82111715610e6257610e61610e0b565b5b80604052505050565b6000610e75610d79565b9050610e818282610e3a565b919050565b600067ffffffffffffffff821115610ea157610ea0610e0b565b5b610eaa82610dfa565b9050602081019050919050565b82818337600083830152505050565b6000610ed9610ed484610e86565b610e6b565b905082815260208101848484011115610ef557610ef4610df5565b5b610f00848285610eb7565b509392505050565b600082601f830112610f1d57610f1c610df0565b5b8135610f2d848260208601610ec6565b91505092915050565b600080600080600060a08688031215610f5257610f51610d83565b5b600086013567ffffffffffffffff811115610f7057610f6f610d88565b5b610f7c88828901610f08565b955050602086013567ffffffffffffffff811115610f9d57610f9c610d88565b5b610fa988828901610f08565b945050604086013567ffffffffffffffff811115610fca57610fc9610d88565b5b610fd688828901610f08565b9350506060610fe788828901610dae565b9250506080610ff888828901610dae565b9150509295509295909350565b61100e81610d8d565b82525050565b60006020820190506110296000830184611005565b92915050565b60008060008060008060c0878903121561104c5761104b610d83565b5b600061105a89828a01610dae565b965050602087013567ffffffffffffffff81111561107b5761107a610d88565b5b61108789828a01610f08565b955050604087013567ffffffffffffffff8111156110a8576110a7610d88565b5b6110b489828a01610f08565b945050606087013567ffffffffffffffff8111156110d5576110d4610d88565b5b6110e189828a01610f08565b93505060806110f289828a01610dae565b92505060a061110389828a01610dae565b9150509295509295509295565b600073ffffffffffffffffffffffffffffffffffffffff82169050919050565b600061113b82611110565b9050919050565b61114b81611130565b82525050565b60006020820190506111666000830184611142565b92915050565b600081519050919050565b600082825260208201905092915050565b6000819050602082019050919050565b600081519050919050565b600082825260208201905092915050565b60005b838110156111d25780820151818401526020810190506111b7565b60008484015250505050565b60006111e982611198565b6111f381856111a3565b93506112038185602086016111b4565b61120c81610dfa565b840191505092915050565b61122081610d8d565b82525050565b600060c083016000830151848203600086015261124382826111de565b9150506020830151848203602086015261125d82826111de565b9150506040830151848203604086015261127782826111de565b915050606083015161128c6060860182611217565b50608083015161129f6080860182611217565b5060a08301516112b260a0860182611217565b508091505092915050565b60006112c98383611226565b905092915050565b6000602082019050919050565b60006112e98261116c565b6112f38185611177565b93508360208202850161130585611188565b8060005b85811015611341578484038952815161132285826112bd565b945061132d836112d1565b925060208a01995050600181019050611309565b50829750879550505050505092915050565b6000602082019050818103600083015261136d81846112de565b905092915050565b600060c083016000830151848203600086015261139282826111de565b915050602083015184820360208601526113ac82826111de565b915050604083015184820360408601526113c682826111de565b91505060608301516113db6060860182611217565b5060808301516113ee6080860182611217565b5060a083015161140160a0860182611217565b508091505092915050565b600060208201905081810360008301526114268184611375565b905092915050565b600082825260208201905092915050565b600061144a82611198565b611454818561142e565b93506114648185602086016111b4565b61146d81610dfa565b840191505092915050565b600060c0820190508181036000830152611492818961143f565b905081810360208301526114a6818861143f565b905081810360408301526114ba818761143f565b90506114c96060830186611005565b6114d66080830185611005565b6114e360a0830184611005565b979650505050505050565b6114f781611130565b811461150257600080fd5b50565b600081359050611514816114ee565b92915050565b6000602082840312156115305761152f610d83565b5b600061153e84828501611505565b91505092915050565b7f43686f636f6c61746520494420646f6573206e6f742065786973740000000000600082015250565b600061157d601b8361142e565b915061158882611547565b602082019050919050565b600060208201905081810360008301526115ac81611570565b9050919050565b7f4e487b7100000000000000000000000000000000000000000000000000000000600052602260045260246000fd5b600060028204905060018216806115fa57607f821691505b60208210810361160d5761160c6115b3565b5b50919050565b60008190508160005260206000209050919050565b60006020601f8301049050919050565b600082821b905092915050565b6000600883026116757fffffffffffffffffffffffffffffffffffffffffffffffffffffffffffffffff82611638565b61167f8683611638565b95508019841693508086168417925050509392505050565b6000819050919050565b60006116bc6116b76116b284610d8d565b611697565b610d8d565b9050919050565b6000819050919050565b6116d6836116a1565b6116ea6116e2826116c3565b848454611645565b825550505050565b600090565b6116ff6116f2565b61170a8184846116cd565b505050565b5b8181101561172e576117236000826116f7565b600181019050611710565b5050565b601f8211156117735761174481611613565b61174d84611628565b8101602085101561175c578190505b61177061176885611628565b83018261170f565b50505b505050565b600082821c905092915050565b600061179660001984600802611778565b1980831691505092915050565b60006117af8383611785565b9150826002028217905092915050565b6117c882611198565b67ffffffffffffffff8111156117e1576117e0610e0b565b5b6117eb82546115e2565b6117f6828285611732565b600060209050601f8311600181146118295760008415611817578287015190505b61182185826117a3565b865550611889565b601f19841661183786611613565b60005b8281101561185f5784890151825560018201915060208501945060208101905061183a565b8683101561187c5784890151611878601f891682611785565b8355505b6001600288020188555050505b505050505050565b7f4e487b7100000000000000000000000000000000000000000000000000000000600052601160045260246000fd5b60006118cb82610d8d565b91506118d683610d8d565b92508282019050808211156118ee576118ed611891565b5b92915050565b7f4e487b7100000000000000000000000000000000000000000000000000000000600052603260045260246000fd5b7f4f776e61626c653a206e6577206f776e657220697320746865207a65726f206160008201527f6464726573730000000000000000000000000000000000000000000000000000602082015250565b600061197f60268361142e565b915061198a82611923565b604082019050919050565b600060208201905081810360008301526119ae81611972565b9050919050565b7f4f776e61626c653a2063616c6c6572206973206e6f7420746865206f776e6572600082015250565b60006119eb60208361142e565b91506119f6826119b5565b602082019050919050565b60006020820190508181036000830152611a1a816119de565b905091905056fea26469706673582212202cff10fb473471c28eca77e6744032f680f9d4a5524a9cd405c2680c2e1a423d64736f6c63430008180033",
  "linkReferences": {},
  "deployedLinkReferences": {}
}